:1000000029C0000042C0000040C000003EC0000007
:1000100099C000003AC0000038C0000036C000009F
:100020005AC0000032C0000030C000002EC00000E6
:100030002CC000002AC0000028C0000026C000001C
:1000400024C0000022C0000020C000001EC000002C
:100050001CC0000011241FBECFE5D4E0DEBFCDBF21
:1000600010E0A0E6B0E0EEE0F8E002C005900D92EE
:10007000A439B107D9F710E0A4E9B0E001C01D929E
:10008000A13DB107E1F7D4D0C0C3BACF1092D000E0
:100090008CB59DB59093B3008093B2008091AE0073
:1000A0009091AF00A091B000B091B1008093B400E6
:1000B0009093B500A093B600B093B7008091D000A4
:1000C000882321F7089580917F008F3F19F084BD28
:1000D00087E085BD08951F920F920FB60F921124ED
:1000E0008F939F93AF93BF938091AE009091AF0099
:1000F000A091B000B091B1000196A11DB11D8093F7
:10010000AE009093AF00A093B000B093B100809187
:10011000D0008F5F8093D000BF91AF919F918F915E
:100120000F900FBE0F901F901895982F80919400FC
:10013000882321F088B39095892302C088B3892B46
:1001400088BBC1CF1F920F920FB60F9211248F93CD
:100150008091950085BB8091940088BB15BC8F91E0
:100160000F900FBE0F901F9018955D9BFECF8CB91E
:1001700008950F931F93CF93DF93062FEC0110E0A8
:1001800003C08991F2DF1F5F1017D8F3DF91CF9181
:100190001F910F9108951F93E8DF15E0E12FF0E024
:1001A000EE54FF4F8081E1DF1150C0F71F91089599
:1001B0001092D0005F9904C08091D0008230D0F3BB
:1001C0008091D000089588EB90E060EE70E046E00A
:1001D00050E0EBD28091B9008F3F41F08FE790E083
:1001E00068EB70E046E050E0D7D207C08FE790E0C0
:1001F00060EE70E046E050E0E8D2109294009091FA
:100200008000292F91FF03C08FEF809394001092FC
:10021000950020FF03C08FEF80939500809194009C
:1002200088BB8091950085BB9874946B92BB0895B0
:1002300084B7806884BF84B7806884BF8FE78BBB36
:1002400088E481BB8FEF84BB87BBBDDF10BC83E03C
:1002500089B988E18AB982E08EBD15BC789489B7E6
:10026000846489BF992477247394662441145104CB
:1002700059F0E20121962FEF42162FEF520619F4A2
:1002800005DF84E588DF2E015F9B04C18CB18935D1
:1002900021F4FCDE89E57FDFE9CF813059F488DF86
:1002A000823020F79CB1809195008111909595BB8B
:1002B0000ADFDCCF843539F4E9DE84E56CDFE1E088
:1002C0004E2E512CD6CF8F3319F44FDF892D06C017
:1002D000883031F419B349DF812F806846DFC6CFFB
:1002E000883541F480E690E065E143DF77246624B9
:1002F0006394BCCF883709F4B6CF853419F435DF61
:10030000872DECCF662021F4823411F415C6AECFD0
:10031000873409F069C01BBA87B986E886B989B7FE
:100320008F7B89BF82E085BD86E790E068E021DFB2
:10033000C0E0D1E05F9BFECF8CB1823031F58FEF12
:1003400084BD8E01EE24FF241CC084B58823E9F708
:10035000369A3699FECF84B108DF85B190E00F2C34
:1003600002C0880F991F0A94E2F7E82A32E0F30EE0
:1003700088E0F81621F48E2DF8DEEE24FF240150DB
:1003800010400115110509F7D5CF8E3671F410DF35
:10039000823018F48CB1D82FC0E00ADF823050F6DA
:1003A0008CB190E0C82BD92BC5CF833439F400DF52
:1003B000823008F0BFCF8CB187B9BCCF863439F416
:1003C000F7DE823008F0B6CF8CB185BDB3CF823571
:1003D00019F08FE3CADEAECF16B889B7806489BF43
:1003E00015BC8FE78BBB42CF853639F4E1DE823016
:1003F00008F03CCF7CB085E671CF803191F5D8DE36
:10040000823008F033CFFCB0D3DE823008F02ECF3C
:100410000CB110E009C0CCDE823008F027CF8CB1DF
:10042000C854DF4F88831F5FA02FB0E0FD013196D5
:10043000C12FD0E0EC17FD0774F7A7C1A854BF4F38
:100440008C91833009F012CF88EB90E06F2D70E033
:10045000402F50E0BAD12FED2F1508F007CFB3DEB3
:1004600005CF813109F002CFA3DE823008F0FECE45
:100470000CB19EDE823008F0F9CE1CB188EB90E022
:10048000602F70E0412F50E090D188EB90E0612F19
:1004900070DEECCE99B380B3809570EBB72EB822A6
:1004A00090959F77B92A82958074B82AB91409F477
:1004B000DDCEECDD64E0C62ED12CC1E0D0E08E01B3
:1004C0000C2C02C0000F111F0A94E2F7402F502F8E
:1004D0005B21252F30E0892D90E080239123281780
:1004E000390751F1552331F1902A5EEFE52E5FEF88
:1004F000F52EEC0CFD1C872D90E00E2C02C095957E
:1005000087950A94E2F780FF17C0802F0EDE02C0A5
:10051000CC0FDD1FEA94E2F79E012095722266203F
:1005200031F0F601EB57FF4F808135DE05C0802F9B
:100530001CDE02C0409594220894C11CD11C38E0F6
:10054000C316D10409F0B9CFEE24FF240091B20004
:100550001091B300D090B400A090B500C090B60048
:100560008090B700F701EE0FFF1FEE0DFF1DEE0F9D
:10057000FF1FEA56FF4F50814181328123819481D0
:100580008581881608F4F8C08815B9F4C91608F4EE
:10059000F3C09C1591F4A21608F4EEC02A1569F474
:1005A000D31608F4E9C03D1541F4141708F4E4C06B
:1005B000411719F4051708F4DFC0C1E0D0E00E2C94
:1005C00002C0CC0FDD1F0A94E2F74C2F5C2F5B2199
:1005D000252F30E0892D90E08C239D2328173907A3
:1005E00009F4CAC0C701880F991F552309F460C0D8
:1005F0009C2ADC01AE0DBF1DAA0FBB1FAA56BF4F20
:1006000020918100309182004091830050918400BC
:10061000E22F232FCA014E2F400FF1E04E1708F0B2
:10062000F0E0E22FE10F11E0E21708F010E03F2FB9
:100630003E0FF1E03E1708F0F0E01F2BE82FED0D24
:1006400001E0E81708F000E01E0FF1E01E1708F0C7
:10065000F0E00F2BE92FEA0DF1E0E91708F0F0E0E8
:10066000202F2E0F81E02E1708F080E09F2F982B6F
:100670009C0D81E09C1508F080E0880D4C9311964C
:100680003C93119712961C93129713962C931397E1
:1006900014969C93149715968C9370FE6DC08C2FB6
:1006A00044DD662009F466C0F701EB57FF4F5FC0D9
:1006B00040959422DC01AE0DBF1DAA0FBB1FAA56A8
:1006C000BF4F209181003091820040918300509172
:1006D0008400E22F232FCA014E2F400FF1E04E1766
:1006E00008F0F0E0E22FE10F11E0E21708F010E06F
:1006F0003F2F3E0FF1E03E1708F0F0E01F2BE82FF0
:10070000ED0D01E0E81708F000E01E0FF1E01E1704
:1007100008F0F0E00F2BE92FEA0DF1E0E91708F0FF
:10072000F0E0202F2E0F81E02E1708F080E09F2FA1
:10073000982B9C0D81E09C1508F080E0880D4C936F
:1007400011963C93119712961C93129713962C9323
:10075000139714969C93149715968C9371FE0CC066
:100760008C2FE3DC662031F0F701E257FF4F8081E8
:1007700012DD02C08C2FF9DC0894E11CF11C84E02E
:10078000E816F10409F0E2CE71CDE854FF4F808104
:10079000823009F06BCD52CEFB01DC0102C001902A
:1007A0000D9241505040D8F70895DC01CB01FC0177
:1007B000E199FECF06C0FFBBEEBBE09A31960DB2C9
:1007C0000D9241505040B8F70895DC01A40FB51FB9
:1007D0004150504040F0CB01840F951F2E9105D021
:1007E00041505040D8F70895262FE199FECF9FBB86
:1007F0008EBBE09A01970DB2021631F02DBB0FB6F9
:0E080000F894E29AE19A0FBE0895F894FFCFA3
:10080E00555354435254424F582C393231363030AE
:10081E002C76363132005254426F7841444300F800
:10082E000200B400003133353761303962003234A2
:04083E003638000048
:00000001FF
