:1000000029C0000065C0000040C000003EC00000E4
:100010003CC000003AC0000038C0000036C00000FC
:1000200083C0000032C0000030C000002EC00000BD
:100030002CC000002AC0000028C0000026C000001C
:1000400025C0000022C0000020C000001EC000002B
:100050001CC0000011241FBECFE5D4E0DEBFCDBF21
:1000600010E0A0E6B0E0ECE6F6E002C005900D92EC
:10007000AC38B107D9F710E0ACE8B0E001C01D9290
:10008000AD3CB107E1F716D1EFC2BACF1F920F9284
:100090000FB60F9211248F939F9388B1982F90726F
:1000A00085FD04C081E080937F000BC0903249F44D
:1000B00080917F00882319F081E080938D00109259
:1000C0007F009F918F910F900FBE0F901F901895FA
:1000D0001F920F920FB60F9211248F9381E080939D
:1000E0008E008F910F900FBE0F901F901895109259
:1000F0008C008CB59DB59093C8008093C70080910B
:10010000C1009091C200A091C300B091C40080933F
:10011000C9009093CA00A093CB00B093CC0080910B
:100120008C00882321F708951F920F920FB60F922B
:1001300011248F939F93AF93BF938091C1009091AF
:10014000C200A091C300B091C4000196A11DB11DD1
:100150008093C1009093C200A093C300B093C400E9
:1001600080918C008F5F80938C00BF91AF919F91A5
:100170008F910F900FBE0F901F9018955D9BFECF33
:100180008CB908950F931F93CF93DF93062FEC0143
:1001900010E003C08991F2DF1F5F1017D8F3DF91E1
:1001A000CF911F910F910895CF93DF93E7DFC7ECB5
:1001B000D0E08D81E3DF219780E0C13CD807C9F70B
:1001C000DF91CF910895FC012091C5003091C600C8
:1001D0008091C7009091C800280F391F3183208378
:1001E00080918F0090919000AC0160E070E0809170
:1001F000C9009091CA00A091CB00B091CC00480FEB
:10020000591F6A1F7B1F42835383648375838091C8
:10021000C7009091C8002817390740F44F5F5F4F1F
:100220006F4F7F4F42835383648375830895109289
:100230008C005F9904C080918C008230D0F3809153
:100240008C00089581E990E060EE70E046E050E0B7
:10025000DBD1809192008F3FB1F488EF80939100C1
:1002600082E0809392001092930084EB809394003C
:10027000109295001092960081E990E060EE70E097
:1002800046E050E0D1D19091940080E0209193001D
:10029000820F911D9093C6008093C50090919600A7
:1002A00080E020919500820F911D909390008093A3
:1002B0008F00089584B7806884BF84B7806884BF46
:1002C0008CE385BB13E015BF8AB780648ABF8BB708
:1002D00080648BBF439A449AB5DF10BC19B988E19A
:1002E0008AB982E08EBD15BC789489B7846489BFD1
:1002F0009924BB24B394AA245F9BE4C08CB18935B4
:1003000021F4F5DE89E550DFF7CF8F3319F436DFBE
:10031000892D10C0883541F480E690E065E132DF38
:10032000BB24AA24A394E8CF883719F3853421F499
:1003300025DF8B2D23DFE0CFAA2021F4823411F4B6
:1003400005C6DACF873409F067C01ABA87B986E8DC
:1003500086B989B78F7B89BF82E085BD86E790E04B
:1003600068E010DFC0E0D1E05F9BFECF8CB182304F
:1003700031F58FEF84BD8E01EE24FF241CC084B5BF
:100380008823E9F7369A3699FECF84B1F7DE85B136
:1003900090E00F2C02C0880F991F0A94E2F7E82A18
:1003A00082E0F80E98E0F91621F48E2DE7DEEE24B7
:1003B000FF24015010400115110509F7D5CF8E36E5
:1003C00071F435DF823018F48CB1D82FC0E02FDF04
:1003D000823050F68CB190E0C82BD92BC5CF833436
:1003E00039F425DF823008F0BFCF8CB187B9BCCF9C
:1003F000863439F41CDF823008F0B6CF8CB185BD6D
:10040000B3CF823519F08FE3B9DEAECF16B889B716
:10041000806489BF15BC70CF853639F408DF82301F
:1004200008F06ACFBCB085E685CF803191F5FFDE5C
:10043000823008F061CFFCB0FADE823008F05CCF89
:100440000CB110E009C0F3DE823008F055CF8CB15A
:10045000CF56DF4F88831F5FA02FB0E0FD0131969C
:10046000C12FD0E0EC17FD0774F7C7C0AF56BF4FE0
:100470008C91833009F040CF81E990E06F2D70E0DE
:10048000402F50E0D1D0EFEDEF1508F035CFDADE98
:1004900033CF813109F030CFCADE823008F02CCF63
:1004A0000CB1C5DE823008F027CF1CB181E990E0A5
:1004B000602F70E0412F50E0A7D081E990E0612FDC
:1004C00061DE1ACF80B382958F70D3B2D094FCE3F3
:1004D000DF22D694D694D82AD91449F480918D007D
:1004E000882329F480918E00882309F405CFFFDD4D
:1004F00080918D00882369F010928D00B3FE09C0B1
:10050000AA2019F080E350DE02C080E137DE87EFD9
:10051000B82280918E00882369F010928E00B2FE7E
:1005200009C0AA2019F081E63FDE02C080E226DE83
:100530009BEFB92289EAE82E80E0F82E00E010E077
:100540002091C9003091CA004091CB005091CC005D
:10055000602FF70182819381A481B5812817390723
:100560004A075B0708F43EC0281739074A075B07AC
:1005700049F42091C7003091C800808191812817EB
:10058000390780F1C1E0D0E002C0CC0FDD1F6A95D1
:10059000E2F74C2F5C2F5D21252F30E0892D90E074
:1005A0008C239D2328173907E9F0552359F09C2AFD
:1005B000C70109DEB0FE16C0AA2091F0F801EB5782
:1005C000FF4F0BC040959422C701FDDDB1FE0AC06C
:1005D000AA2031F0F801E058FF4F8081E5DD02C02C
:1005E0008C2FCCDD0F5F1F4F86E090E0E80EF91EE8
:1005F0000430110509F0A4CF7FCEEF56FF4F808164
:10060000823009F079CE32CFDC01CB01FC01E199D7
:10061000FECF06C0FFBBEEBBE09A31960DB20D9245
:1006200041505040B8F70895DC01A40FB51F415068
:10063000504040F0CB01840F951F2E9105D04150C2
:100640005040D8F70895262FE199FECF9FBB8EBB6F
:10065000E09A01970DB2021631F02DBB0FB6F89457
:0C066000E29AE19A0FBE0895F894FFCFD3
:10066C00555354435254424F582C39323136303052
:10067C002C76313932005254426F78414443000198
:0C068C003234363800313335376130002D
:00000001FF
