:1000000029C0000042C0000040C000003EC0000007
:1000100099C000003AC0000038C0000036C000009F
:100020005AC0000032C0000030C000002EC00000E6
:100030002CC000002AC0000028C0000026C000001C
:1000400024C0000022C0000020C000001EC000002C
:100050001CC0000011241FBECFE5D4E0DEBFCDBF21
:1000600010E0A0E6B0E0E6E0F7E002C005900D92F7
:10007000A039B107D9F710E0A0E9B0E001C01D92A6
:10008000AF3CB107E1F72BD13CC3BACF109291003E
:100090008CB59DB59093CA008093C9008091C4002F
:1000A0009091C500A091C600B091C7008093CB008D
:1000B0009093CC00A093CD00B093CE00809191009E
:1000C000882321F708958091C8008F3F19F084BDDF
:1000D00087E085BD08951F920F920FB60F921124ED
:1000E0008F939F93AF93BF938091C4009091C5006D
:1000F000A091C600B091C7000196A11DB11D8093CB
:10010000C4009093C500A093C600B093C70080912F
:1001100091008F5F80939100BF91AF919F918F91DC
:100120000F900FBE0F901F901895982F80917F0011
:10013000882321F088B39095892302C088B3892B46
:1001400088BBC1CF1F920F920FB60F9211248F93CD
:100150008091900085BB80917F0088BB15BC8F91FA
:100160000F900FBE0F901F9018955D9BFECF8CB91E
:1001700008950F931F93CF93DF93062FEC0110E0A8
:1001800003C08991F2DF1F5F1017D8F3DF91CF9181
:100190001F910F910895CF93DF93E7DFC9ECD0E073
:1001A0008D81E3DF219780E0C33CD807C9F7DF9159
:1001B000CF910895FC0120918000309181008091C1
:1001C000C9009091CA00280F391F31832083809184
:1001D000920090919300AC0160E070E08091CB00C0
:1001E0009091CC00A091CD00B091CE00480F591F46
:1001F0006A1F7B1F42835383648375838091C90088
:100200009091CA002817390740F44F5F5F4F6F4F36
:100210007F4F4283538364837583089510929100C6
:100220005F9904C0809191008230D0F38091910059
:10023000089584E990E060EE70E046E050E031D24D
:10024000809195008F3FB1F488EF8093940082E015
:10025000809395001092960084EB80939700109203
:1002600098001092990084E990E060EE70E046E01A
:1002700050E027D2809194008093C80010929000A3
:1002800010927F0090919500292F90FF03C08FEF6F
:100290008093900021FF03C08FEF80937F008091B7
:1002A000900085BB80917F0088BB9874946B92BB53
:1002B0009091970080E020919600820F911D90937D
:1002C0008100809380009091990080E020919800B7
:1002D000820F911D9093930080939200089584B7AC
:1002E000806884BF84B7806884BF8FE78BBB88E455
:1002F00081BB8FEF84BB87BB9CDF10BC83E089B9D7
:1003000088E18AB982E08EBD15BC789489B784648F
:1003100089BFAA249924939488245F9BFAC08CB146
:10032000893521F4B3DE89E536DFF7CF813059F422
:1003300075DF823090F79CB180919000811190958B
:1003400095BBC1DEEACF853631F468DF823028F70D
:100350009CB085E604C08F3321F407DF8A2D05DFCA
:10036000DCCF883029F419B300DF812F8068F7CF04
:10037000883541F480E690E065E1FBDE992488242D
:100380008394CBCF883709F4C5CF853419F4EDDEDB
:10039000892DE5CF882021F4823411F4D1C5BDCF59
:1003A000873409F069C01BBA87B986E886B989B76E
:1003B0008F7B89BF82E085BD86E790E068E0D9DE6B
:1003C000C0E0D1E05F9BFECF8CB1823031F58FEF82
:1003D00084BD8E01EE24FF241CC084B58823E9F778
:1003E000369A3699FECF84B1C0DE85B190E00F2CED
:1003F00002C0880F991F0A94E2F7E82A22E0F20E61
:1004000038E0F31621F48E2DB0DEEE24FF240150E7
:1004100010400115110509F7D5CF8E3671F4FEDEB7
:10042000823018F48CB1D82FC0E0F8DE823050F65C
:100430008CB190E0C82BD92BC5CF833439F4EEDED4
:10044000823008F0BFCF8CB187B9BCCF863439F485
:10045000E5DE823008F0B6CF8CB185BDB3CF8235F2
:1004600019F08FE382DEAECF16B889B7806489BFFA
:1004700015BC8FE78BBB51CF803191F5CFDE823039
:1004800008F04BCFFCB0CADE823008F046CF0CB18A
:1004900010E009C0C3DE823008F03FCF8CB1CC56EB
:1004A000DF4F88831F5FA02FB0E0FD013196C12F81
:1004B000D0E0EC17FD0774F7EDC0AC56BF4F8C9140
:1004C000833009F02ACF84E990E06F2D70E0402F4F
:1004D00050E0F7D08FED8F1508F01FCFAADE1DCFAB
:1004E000813109F01ACF9ADE823008F016CF0CB1B4
:1004F00095DE823008F011CF1CB184E990E0602FC6
:1005000070E0412F50E0CDD084E990E0612F31DEE2
:1005100004CF99B380B3809530EBB32EB822909579
:100520009F77B92A82958074B82ABA1409F4F5CE57
:10053000ADDD24E0C22ED12CC1E0D0E08E010C2C28
:1005400002C0000F111F0A94E2F7402F502F5B21C9
:10055000252F30E08A2D90E080239123281739073A
:1005600051F1552331F1A02A9EEFE92E9FEFF92E8C
:10057000EC0CFD1C892D90E00E2C02C09595879502
:100580000A94E2F780FF17C0802FCFDD02C0CC0FA6
:10059000DD1FEA94E2F7FE01E0959E22882031F00B
:1005A000F601E957FF4F8081F6DD05C0802FDDDDC4
:1005B00002C04095A4220894C11CD11CF8E0CF16BB
:1005C000D10409F0B9CF8CEAE82E80E0F82E00E0E3
:1005D00010E02091CB003091CC004091CD005091A3
:1005E000CE00602FF70182819381A481B581281705
:1005F00039074A075B0708F442C0281739074A073A
:100600005B0749F42091C9003091CA008081918133
:1006100028173907A0F1C1E0D0E002C0CC0FDD1FE0
:100620006A95E2F74C2F5C2F5B21252F30E08A2D55
:1006300090E08C239D232817390709F1552369F091
:10064000AC2AC701B7DD90FE1AC08C2F6EDD882062
:10065000A1F0F801E957FF4F0DC04095A422C70152
:10066000A9DD91FE0CC08C2F60DD882031F0F801EF
:10067000EE57FF4F80818FDD02C08C2F76DD0F5F3C
:100680001F4F26E030E0E20EF31E0430110509F0A2
:10069000A0CF43CEEC56FF4F8081823009F03DCE93
:1006A0000CCFDC01CB01FC01E199FECF06C0FFBB02
:1006B000EEBBE09A31960DB20D9241505040B8F722
:1006C0000895DC01A40FB51F4150504040F0CB010C
:1006D000840F951F2E9105D041505040D8F70895B2
:1006E000262FE199FECF9FBB8EBBE09A01970DB2FA
:1006F000021631F02DBB0FB6F894E29AE19A0FBEC4
:060700000895F894FFCFFC
:10070600555354435254424F582C393231363030B7
:100716002C76353232005254426F7841444300FF02
:1007260000B432343638003133353761303962003F
:00000001FF
