:1000000029C0000042C0000040C000003EC0000007
:1000100099C000003AC0000038C0000036C000009F
:100020005AC0000032C0000030C000002EC00000E6
:100030002CC000002AC0000028C0000026C000001C
:1000400024C0000022C0000020C000001EC000002C
:100050001CC0000011241FBECFE5D4E0DEBFCDBF21
:1000600010E0A0E6B0E0E4EFF6E002C005900D92EB
:10007000AE38B107D9F710E0AEE8B0E001C01D928C
:10008000AF3CB107E1F729D133C3BACF10928F004B
:100090008CB59DB59093CA008093C9008091C20031
:1000A0009091C300A091C400B091C5008093CB0093
:1000B0009093CC00A093CD00B093CE0080918F00A0
:1000C000882321F708958091C6008F3F19F084BDE1
:1000D00087E085BD08951F920F920FB60F921124ED
:1000E0008F939F93AF93BF938091C2009091C30071
:1000F000A091C400B091C5000196A11DB11D8093CF
:10010000C2009093C300A093C400B093C500809137
:100110008F008F5F80938F00BF91AF919F918F91E0
:100120000F900FBE0F901F901895982F80917F0011
:10013000882321F088B39095892302C088B3892B46
:1001400088BBC1CF1F920F920FB60F9211248F93CD
:1001500080918E0085BB80917F0088BB15BC8F91FC
:100160000F900FBE0F901F9018955D9BFECF8CB91E
:1001700008950F931F93CF93DF93062FEC0110E0A8
:1001800003C08991F2DF1F5F1017D8F3DF91CF9181
:100190001F910F9108951F93E8DF15E0E12FF0E024
:1001A000E753FF4F8081E1DF1150C0F71F910895A1
:1001B000FC012091C7003091C8008091C900909146
:1001C000CA00280F391F31832083809190009091BD
:1001D0009100AC0160E070E08091CB009091CC0088
:1001E000A091CD00B091CE00480F591F6A1F7B1F10
:1001F00042835383648375838091C9009091CA00C0
:100200002817390740F44F5F5F4F6F4F7F4F42838E
:10021000538364837583089510928F005F9904C09F
:1002200080918F008230D0F380918F00089582E911
:1002300090E060EE70E046E050E02AD280919300BA
:100240008F3FB1F488EF8093920082E08093930017
:100250001092940084EB8093950010929600109277
:10026000970082E990E060EE70E046E050E020D236
:10027000809192008093C60010928E0010927F00B1
:1002800090919300292F90FF03C08FEF80938E00F1
:1002900021FF03C08FEF80937F0080918E0085BB8C
:1002A00080917F0088BB9874946B92BB909195006D
:1002B00080E020919400820F911D9093C80080935C
:1002C000C7009091970080E020919600820F911DC9
:1002D0009093910080939000089584B7806884BFC4
:1002E00084B7806884BF8FE78BBB88E481BB8FEFC6
:1002F00084BB87BB9CDF10BC83E089B988E18AB9E5
:1003000082E08EBD15BC789489B7846489BFAA2425
:100310008824992493945F9BF3C08CB1893521F490
:10032000B5DE89E538DFF7CF813059F475DF8230EB
:1003300090F79CB180918E008111909595BBC3DEA2
:10034000EACF8F3319F411DF8A2D10C0883541F4BC
:1003500080E690E065E10DDF882483949924DBCF6B
:100360008837B1F2853421F400DF892DFEDED3CF4A
:10037000882021F4823411F4E5C5CDCF873409F00B
:1003800069C01BBA87B986E886B989B78F7B89BFF0
:1003900082E085BD86E790E068E0EBDEC0E0D1E07A
:1003A0005F9BFECF8CB1823031F58FEF84BD8E0123
:1003B000EE24FF241CC084B58823E9F7369A3699C9
:1003C000FECF84B1D2DE85B190E00F2C02C0880F41
:1003D000991F0A94E2F7E82A22E0F20E38E0F316B9
:1003E00021F48E2DC2DEEE24FF24015010400115B1
:1003F000110509F7D5CF8E3671F40EDF823018F46F
:100400008CB1D82FC0E008DF823050F68CB190E07C
:10041000C82BD92BC5CF833439F4FEDE823008F0E7
:10042000BFCF8CB187B9BCCF863439F4F5DE8230CA
:1004300008F0B6CF8CB185BDB3CF823519F08FE30C
:1004400094DEAECF16B889B7806489BF15BC8FE73C
:100450008BBB61CF853639F4DFDE823008F05BCFAD
:100460009CB085E683CF803191F5D6DE823008F0EE
:1004700052CFFCB0D1DE823008F04DCF0CB110E08D
:1004800009C0CADE823008F046CF8CB1CE56DF4FAD
:1004900088831F5FA02FB0E0FD013196C12FD0E00F
:1004A000EC17FD0774F7EDC0AE56BF4F8C9183304B
:1004B00009F031CF82E990E06F2D70E0402F50E0DD
:1004C000F7D08FED8F1508F026CFB1DE24CF813124
:1004D00009F021CFA1DE823008F01DCF0CB19CDEE7
:1004E000823008F018CF1CB182E990E0602F70E0F4
:1004F000412F50E0CDD082E990E0612F3ADE0BCF62
:1005000099B380B3809530EBB32EB82290959F7746
:10051000B92A82958074B82ABA1409F4FCCEB6DDE3
:1005200024E0C22ED12CC1E0D0E08E010C2C02C000
:10053000000F111F0A94E2F7402F502F5B21252F47
:1005400030E08A2D90E0802391232817390751F15C
:10055000552331F1A02A9EEFE92E9FEFF92EEC0CE6
:10056000FD1C892D90E00E2C02C0959587950A946C
:10057000E2F780FF17C0802FD8DD02C0CC0FDD1F4F
:10058000EA94E2F7FE01E0959E22882031F0F60120
:10059000EB57FF4F8081FFDD05C0802FE6DD02C0F5
:1005A0004095A4220894C11CD11CF8E0CF16D104B8
:1005B00009F0B9CF8AEAE82E80E0F82E00E010E0DA
:1005C0002091CB003091CC004091CD005091CE00D5
:1005D000602FF70182819381A481B58128173907A3
:1005E0004A075B0708F442C0281739074A075B0728
:1005F00049F42091C9003091CA0080819181281767
:100600003907A0F1C1E0D0E002C0CC0FDD1F6A9530
:10061000E2F74C2F5C2F5B21252F30E08A2D90E0F4
:100620008C239D232817390709F1552369F0AC2A3B
:10063000C701BEDD90FE1AC08C2F77DD8820A1F0A7
:10064000F801EB57FF4F0DC04095A422C701B0DD64
:1006500091FE0CC08C2F69DD882031F0F801E05844
:10066000FF4F808198DD02C08C2F7FDD0F5F1F4F11
:1006700026E030E0E20EF31E0430110509F0A0CFB1
:100680004ACEEE56FF4F8081823009F044CE0CCF27
:10069000DC01CB01FC01E199FECF06C0FFBBEEBB44
:1006A000E09A31960DB20D9241505040B8F708953E
:1006B000DC01A40FB51F4150504040F0CB01840F26
:1006C000951F2E9105D041505040D8F70895262F00
:1006D000E199FECF9FBB8EBBE09A01970DB2021647
:1006E00031F02DBB0FB6F894E29AE19A0FBE08954F
:0406F000F894FFCFAC
:1006F400555354435254424F582C393231363030CA
:100704002C76363131005254426F7841444300FF15
:0E071400323436380031333537613039620007
:00000001FF
