:1000000029C0000042C0000040C000003EC0000007
:1000100084C000003AC0000038C0000036C00000B4
:1000200052C0000032C0000030C000002EC00000EE
:100030002CC000002AC0000028C0000026C000001C
:1000400024C0000022C0000020C000001EC000002C
:100050001CC0000011241FBECFE5D4E0DEBFCDBF21
:1000600010E0A0E6B0E0E8E0F7E002C005900D92F5
:10007000AC38B107D9F710E0ACE8B0E001C01D9290
:10008000AD3CB107E1F705D13DC3BACF10928C006A
:100090008CB59DB59093C8008093C7008091C00037
:1000A0009091C100A091C200B091C3008093C9009B
:1000B0009093CA00A093CB00B093CC0080918C00A9
:1000C000882321F708951F920F920FB60F921124E3
:1000D0008F939F93AF93BF938091C0009091C10085
:1000E000A091C200B091C3000196A11DB11D8093E3
:1000F000C0009093C100A093C200B093C300809150
:100100008C008F5F80938C00BF91AF919F918F91F6
:100110000F900FBE0F901F9018951F920F920FB661
:100120000F9211248F938091BF008BBB15BC8F91D0
:100130000F900FBE0F901F9018955D9BFECF8CB94E
:1001400008950F931F93CF93DF93062FEC0110E0D8
:1001500003C08991F2DF1F5F1017D8F3DF91CF91B1
:100160001F910F910895CF93DF93E7DFC7ECD0E0A5
:100170008D81E3DF219780E0C13CD807C9F7DF918B
:10018000CF910895FC012091C5003091C600809167
:10019000C7009091C800280F391F318320838091B8
:1001A0008D0090918E00AC0160E070E08091C900FC
:1001B0009091CA00A091CB00B091CC00480F591F7C
:1001C0006A1F7B1F42835383648375838091C700BA
:1001D0009091C8002817390740F44F5F5F4F6F4F69
:1001E0007F4F4283538364837583089510928C00FC
:1001F0005F9904C080918C008230D0F380918C0094
:1002000008958FE890E060EE70E046E050E04AD25A
:10021000809190008F3FB1F488EF80938F0082E04F
:10022000809390001092910084EB80939200109242
:100230009300109294008FE890E060EE70E046E04A
:1002400050E040D280918F008093C4001092BF0094
:100250008091900080FF03C080EF8093BF00809169
:10026000BF008BBB9091920080E020919100820FA3
:10027000911D9093C6008093C5009091940080E0FA
:1002800020919300820F911D90938E0080938D009A
:10029000089584B7806884BF84B7806884BF80B7BE
:1002A000846080BF80EF8ABB13E017BB18BAA9DF58
:1002B00010BC19B988E18AB982E08EBD15BC78946A
:1002C00089B7846489BFBB24AA24A39499245F9B23
:1002D00026C12CB1293521F4D9DE89E544DFF7CFD9
:1002E000203158F530E0A90142705070E5E0440F2C
:1002F000551FEA95E1F7C9018470907073E0880F8B
:10030000991F7A95E1F7482BC9019695982F882770
:1003100097958795482B28703070220F331F422BFA
:100320008091BF00811140954BBB8091C4008F3FED
:1003300071F284BD87E085BDCACF2F3321F48FE3EE
:10034000FCDE8B2D16C0283551F480E690E065E187
:10035000F8DEC098C198AA2499249394B8CF28377E
:1003600019F4C09AC19AB0CF253429F485E4E5DEAA
:100370008A2DE3DEACCF992021F4223411F4E6C5B6
:10038000A6CF273409F069C01ABA27B986E886B91A
:1003900089B78F7B89BF82E085BD86E790E068E002
:1003A000D0DEC0E0D1E05F9BFECF8CB1823031F572
:1003B0008FEF84BD8E01EE24FF241CC084B58823FA
:1003C000E9F7369A3699FECF84B1B7DE85B190E071
:1003D0000F2C02C0880F991F0A94E2F7E82A82E0E6
:1003E000F80E98E0F91621F48E2DA7DEEE24FF24F6
:1003F000015010400115110509F7D5CF8E3671F463
:10040000F5DE823018F48CB1D82FC0E0EFDE8230F8
:1004100050F68CB190E0C82BD92BC5CF833439F47A
:10042000E5DE823008F0BFCF8CB187B9BCCF86340F
:1004300039F4DCDE823008F0B6CF8CB185BDB3CFA5
:10044000823519F08FE379DEAECF16B889B78064B4
:1004500089BF15BC80EF8ABB3ACF253699F4C6DE3A
:10046000823008F034CFACB085E667DE8A2DA2FE7C
:1004700002C0C09A01C0C09883FF02C0C19A27CFB2
:10048000C19825CF203191F5B1DE823008F01FCF21
:10049000FCB0ACDE823008F01ACF0CB110E009C01D
:1004A000A5DE823008F013CF8CB1C157DF4F8883AF
:1004B0001F5FA02FB0E0FD013196C12FD0E0EC17F7
:1004C000FD0774F7E8C0A157BF4F8C91833009F046
:1004D000FECE8FE890E06F2D70E0402F50E0F2D01C
:1004E000EFEDEF1508F0F3CE8CDEF1CE213109F0FF
:1004F000EECE7CDE823008F0EACE0CB177DE8230C0
:1005000008F0E5CE1CB18FE890E0602F70E0412F3D
:1005100050E0C8D08FE890E0612F13DED8CE80B3D2
:100520009CE0D92ED822DD0CDD0C82958F70D82A64
:1005300086B382958074D82ADB1409F4C8CEA6DD70
:10054000C4E0D0E041E050E00C2E02C0440F551F43
:100550000A94E2F7642F742F7D21272F30E08B2D32
:1005600090E0842395232817390769F1772349F10F
:10057000B42A8E01025010408A2D90E0002E02C055
:10058000959587950A94E2F780FF1DC0992031F078
:10059000FE01EC57FF4F8081E6DD02C0842FCDDDE8
:1005A00081E090E002C0880F991F0A95E2F78095DC
:1005B000A822C43011F4C09806C0C53021F4C198F7
:1005C00002C06095B6222196C730D10509F0BACF96
:1005D00087EAE82E80E0F82E00E010E02091C900C4
:1005E0003091CA004091CB005091CC00602FF701B0
:1005F00082819381A481B581281739074A075B0757
:1006000008F43EC0281739074A075B0749F42091D0
:10061000C7003091C800808191812817390780F187
:10062000C1E0D0E002C0CC0FDD1F6A95E2F74C2F8D
:100630005C2F5D21252F30E08B2D90E08C239D23B6
:1006400028173907E9F0552359F0BC2AC7019ADD6C
:10065000A0FE16C0992091F0F801EC57FF4F0BC097
:100660004095B422C7018EDDA1FE0AC0992031F069
:10067000F801E158FF4F808176DD02C08C2F5DDDEF
:100680000F5F1F4F86E090E0E80EF91E0430110561
:1006900009F0A4CF1CCEE157FF4F8081823009F0D2
:1006A00016CE11CFDC01CB01FC01E199FECF06C0D3
:1006B000FFBBEEBBE09A31960DB20D924150504017
:1006C000B8F70895DC01A40FB51F4150504040F029
:1006D000CB01840F951F2E9105D041505040D8F783
:1006E0000895262FE199FECF9FBB8EBBE09A01971C
:1006F0000DB2021631F02DBB0FB6F894E29AE19AD2
:080700000FBE0895F894FFCF2D
:10070800555354435254424F582C393231363030B5
:100718002C76343731005254426F784144430032CA
:0C07280034363800313335376130390089
:00000001FF
