:1000000029C0000042C0000040C000003EC0000007
:1000100099C000003AC0000038C0000036C000009F
:100020005AC0000032C0000030C000002EC00000E6
:100030002CC000002AC0000028C0000026C000001C
:1000400024C0000022C0000020C000001EC000002C
:100050001CC0000011241FBECFE5D4E0DEBFCDBF21
:1000600010E0A0E6B0E0E6EFF6E002C005900D92E9
:10007000AE38B107D9F710E0AEE8B0E001C01D928C
:10008000AF3CB107E1F72BD134C3BACF10928F0048
:100090008CB59DB59093CA008093C9008091C20031
:1000A0009091C300A091C400B091C5008093CB0093
:1000B0009093CC00A093CD00B093CE0080918F00A0
:1000C000882321F708958091C6008F3F19F084BDE1
:1000D00087E085BD08951F920F920FB60F921124ED
:1000E0008F939F93AF93BF938091C2009091C30071
:1000F000A091C400B091C5000196A11DB11D8093CF
:10010000C2009093C300A093C400B093C500809137
:100110008F008F5F80938F00BF91AF919F918F91E0
:100120000F900FBE0F901F901895982F80917F0011
:10013000882321F088B39095892302C088B3892B46
:1001400088BBC1CF1F920F920FB60F9211248F93CD
:1001500080918E0085BB80917F0088BB15BC8F91FC
:100160000F900FBE0F901F9018955D9BFECF8CB91E
:1001700008950F931F93CF93DF93062FEC0110E0A8
:1001800003C08991F2DF1F5F1017D8F3DF91CF9181
:100190001F910F910895CF93DF93E7DFC9ECD0E073
:1001A0008D81E3DF219780E0C33CD807C9F7DF9159
:1001B000CF910895FC012091C7003091C800809133
:1001C000C9009091CA00280F391F31832083809184
:1001D000900090919100AC0160E070E08091CB00C4
:1001E0009091CC00A091CD00B091CE00480F591F46
:1001F0006A1F7B1F42835383648375838091C90088
:100200009091CA002817390740F44F5F5F4F6F4F36
:100210007F4F4283538364837583089510928F00C8
:100220005F9904C080918F008230D0F380918F005D
:10023000089582E990E060EE70E046E050E029D257
:10024000809193008F3FB1F488EF8093920082E019
:10025000809393001092940084EB80939500109209
:1002600096001092970082E990E060EE70E046E020
:1002700050E01FD2809192008093C60010928E00B1
:1002800010927F0090919300292F90FF03C08FEF71
:1002900080938E0021FF03C08FEF80937F008091B9
:1002A0008E0085BB80917F0088BB9874946B92BB55
:1002B0009091950080E020919400820F911D909381
:1002C000C8008093C7009091970080E0209196002D
:1002D000820F911D9093910080939000089584B7B0
:1002E000806884BF84B7806884BF8FE78BBB88E455
:1002F00081BB8FEF84BB87BB9CDF10BC83E089B9D7
:1003000088E18AB982E08EBD15BC789489B784648F
:1003100089BFAA249924939488245F9BF2C08CB14E
:10032000893521F4B3DE89E536DFF7CF813059F422
:1003300075DF823090F79CB180918E00811190958D
:1003400095BBC1DEEACF853631F468DF823028F70D
:100350009CB085E604C08F3321F407DF8A2D05DFCA
:10036000DCCF883541F480E690E065E102DF992436
:1003700088248394D2CF883769F2853419F4F5DE66
:10038000892DEDCF882021F4823411F4DAC5C5CF50
:10039000873409F069C01BBA87B986E886B989B77E
:1003A0008F7B89BF82E085BD86E790E068E0E1DE73
:1003B000C0E0D1E05F9BFECF8CB1823031F58FEF92
:1003C00084BD8E01EE24FF241CC084B58823E9F788
:1003D000369A3699FECF84B1C8DE85B190E00F2CF5
:1003E00002C0880F991F0A94E2F7E82A22E0F20E71
:1003F00038E0F31621F48E2DB8DEEE24FF240150F0
:1004000010400115110509F7D5CF8E3671F406DFBE
:10041000823018F48CB1D82FC0E000DF823050F663
:100420008CB190E0C82BD92BC5CF833439F4F6DEDC
:10043000823008F0BFCF8CB187B9BCCF863439F495
:10044000EDDE823008F0B6CF8CB185BDB3CF8235FA
:1004500019F08FE38ADEAECF16B889B7806489BF02
:1004600015BC8FE78BBB59CF803191F5D7DE823039
:1004700008F053CFFCB0D2DE823008F04ECF0CB182
:1004800010E009C0CBDE823008F047CF8CB1CE56E9
:10049000DF4F88831F5FA02FB0E0FD013196C12F91
:1004A000D0E0EC17FD0774F7EDC0AE56BF4F8C914E
:1004B000833009F032CF82E990E06F2D70E0402F59
:1004C00050E0F7D08FED8F1508F027CFB2DE25CFA3
:1004D000813109F022CFA2DE823008F01ECF0CB1AC
:1004E0009DDE823008F019CF1CB182E990E0602FC8
:1004F00070E0412F50E0CDD082E990E0612F39DEED
:100500000CCF99B380B3809530EBB32EB822909581
:100510009F77B92A82958074B82ABA1409F4FDCE5F
:10052000B5DD24E0C22ED12CC1E0D0E08E010C2C30
:1005300002C0000F111F0A94E2F7402F502F5B21D9
:10054000252F30E08A2D90E080239123281739074A
:1005500051F1552331F1A02A9EEFE92E9FEFF92E9C
:10056000EC0CFD1C892D90E00E2C02C09595879512
:100570000A94E2F780FF17C0802FD7DD02C0CC0FAE
:10058000DD1FEA94E2F7FE01E0959E22882031F01B
:10059000F601EB57FF4F8081FEDD05C0802FE5DDC2
:1005A00002C04095A4220894C11CD11CF8E0CF16CB
:1005B000D10409F0B9CF8AEAE82E80E0F82E00E0F5
:1005C00010E02091CB003091CC004091CD005091B3
:1005D000CE00602FF70182819381A481B581281715
:1005E00039074A075B0708F442C0281739074A074A
:1005F0005B0749F42091C9003091CA008081918144
:1006000028173907A0F1C1E0D0E002C0CC0FDD1FF0
:100610006A95E2F74C2F5C2F5B21252F30E08A2D65
:1006200090E08C239D232817390709F1552369F0A1
:10063000AC2AC701BFDD90FE1AC08C2F76DD882062
:10064000A1F0F801EB57FF4F0DC04095A422C70160
:10065000B1DD91FE0CC08C2F68DD882031F0F801EF
:10066000E058FF4F808197DD02C08C2F7EDD0F5F49
:100670001F4F26E030E0E20EF31E0430110509F0B2
:10068000A0CF4BCEEE56FF4F8081823009F045CE91
:100690000CCFDC01CB01FC01E199FECF06C0FFBB12
:1006A000EEBBE09A31960DB20D9241505040B8F732
:1006B0000895DC01A40FB51F4150504040F0CB011C
:1006C000840F951F2E9105D041505040D8F70895C2
:1006D000262FE199FECF9FBB8EBBE09A01970DB20A
:1006E000021631F02DBB0FB6F894E29AE19A0FBED4
:0606F0000895F894FFCF0D
:1006F600555354435254424F582C393231363030C8
:100706002C76353231005254426F7841444300FF13
:0E071600323436380031333537613039620005
:00000001FF
